{
  "contractName": "Microblogger",
  "abi": [
    {
      "constant": true,
      "inputs": [
        {
          "name": "",
          "type": "address"
        }
      ],
      "name": "OldMember",
      "outputs": [
        {
          "name": "",
          "type": "bool"
        }
      ],
      "payable": false,
      "stateMutability": "view",
      "type": "function"
    },
    {
      "constant": true,
      "inputs": [
        {
          "name": "",
          "type": "uint256"
        }
      ],
      "name": "Messages",
      "outputs": [
        {
          "name": "owner",
          "type": "address"
        },
        {
          "name": "id",
          "type": "uint256"
        },
        {
          "name": "data",
          "type": "string"
        },
        {
          "name": "year",
          "type": "uint256"
        },
        {
          "name": "month",
          "type": "uint256"
        },
        {
          "name": "day",
          "type": "uint256"
        },
        {
          "name": "hour",
          "type": "uint256"
        },
        {
          "name": "minute",
          "type": "uint256"
        },
        {
          "name": "second",
          "type": "uint256"
        },
        {
          "name": "username",
          "type": "string"
        }
      ],
      "payable": false,
      "stateMutability": "view",
      "type": "function"
    },
    {
      "constant": true,
      "inputs": [],
      "name": "msgCount",
      "outputs": [
        {
          "name": "",
          "type": "uint256"
        }
      ],
      "payable": false,
      "stateMutability": "view",
      "type": "function"
    },
    {
      "inputs": [],
      "payable": false,
      "stateMutability": "nonpayable",
      "type": "constructor"
    },
    {
      "anonymous": false,
      "inputs": [],
      "name": "NewPost",
      "type": "event"
    },
    {
      "constant": false,
      "inputs": [
        {
          "name": "_name",
          "type": "string"
        },
        {
          "name": "keyphrase",
          "type": "string"
        }
      ],
      "name": "register",
      "outputs": [],
      "payable": false,
      "stateMutability": "nonpayable",
      "type": "function"
    },
    {
      "constant": false,
      "inputs": [
        {
          "name": "keyphrase",
          "type": "string"
        }
      ],
      "name": "login",
      "outputs": [],
      "payable": false,
      "stateMutability": "nonpayable",
      "type": "function"
    },
    {
      "constant": false,
      "inputs": [
        {
          "name": "msgs",
          "type": "string"
        }
      ],
      "name": "PostMessage",
      "outputs": [],
      "payable": false,
      "stateMutability": "nonpayable",
      "type": "function"
    },
    {
      "constant": false,
      "inputs": [],
      "name": "logout",
      "outputs": [],
      "payable": false,
      "stateMutability": "nonpayable",
      "type": "function"
    }
  ],
  "bytecode": "0x608060405234801561001057600080fd5b50600060048190555061154e806100286000396000f300608060405260043610610083576000357c0100000000000000000000000000000000000000000000000000000000900463ffffffff1680631f3c99c3146100885780633a7d280c1461009f5780633ffbd47f14610108578063457f21b9146101b757806384d4a3bf1461022057806385a4d02e1461027b5780638f1a2810146103f1575b600080fd5b34801561009457600080fd5b5061009d61041c565b005b3480156100ab57600080fd5b50610106600480360381019080803590602001908201803590602001908080601f0160208091040260200160405190810160405280939291908181526020018383808284378201915050505050509192919290505050610476565b005b34801561011457600080fd5b506101b5600480360381019080803590602001908201803590602001908080601f0160208091040260200160405190810160405280939291908181526020018383808284378201915050505050509192919290803590602001908201803590602001908080601f01602080910402602001604051908101604052809392919081815260200183838082843782019150505050505091929192905050506108d5565b005b3480156101c357600080fd5b5061021e600480360381019080803590602001908201803590602001908080601f0160208091040260200160405190810160405280939291908181526020018383808284378201915050505050509192919290505050610a5f565b005b34801561022c57600080fd5b50610261600480360381019080803573ffffffffffffffffffffffffffffffffffffffff169060200190929190505050610d93565b604051808215151515815260200191505060405180910390f35b34801561028757600080fd5b506102a660048036038101908080359060200190929190505050610db3565b604051808b73ffffffffffffffffffffffffffffffffffffffff1673ffffffffffffffffffffffffffffffffffffffff1681526020018a8152602001806020018981526020018881526020018781526020018681526020018581526020018481526020018060200183810383528b818151815260200191508051906020019080838360005b8381101561034657808201518184015260208101905061032b565b50505050905090810190601f1680156103735780820380516001836020036101000a031916815260200191505b50838103825284818151815260200191508051906020019080838360005b838110156103ac578082015181840152602081019050610391565b50505050905090810190601f1680156103d95780820380516001836020036101000a031916815260200191505b509c5050505050505050505050505060405180910390f35b3480156103fd57600080fd5b50610406610f57565b6040518082815260200191505060405180910390f35b6000600360003373ffffffffffffffffffffffffffffffffffffffff1673ffffffffffffffffffffffffffffffffffffffff16815260200190815260200160002060006101000a81548160ff021916908315150217905550565b606080600080606080600080600260003373ffffffffffffffffffffffffffffffffffffffff1673ffffffffffffffffffffffffffffffffffffffff16815260200190815260200160002060010160009054906101000a900473ffffffffffffffffffffffffffffffffffffffff1673ffffffffffffffffffffffffffffffffffffffff163373ffffffffffffffffffffffffffffffffffffffff1614151561051b57fe5b88975060146040519080825280601f01601f1916602001820160405280156105525781602001602082028038833980820191505090505b509650339550600094505b60148510156105fe578460130360080260020a8673ffffffffffffffffffffffffffffffffffffffff1681151561059057fe5b047f01000000000000000000000000000000000000000000000000000000000000000287868151811015156105c157fe5b9060200101907effffffffffffffffffffffffffffffffffffffffffffffffffffffffffffff1916908160001a905350848060010195505061055d565b86518851016040519080825280601f01601f1916602001820160405280156106355781602001602082028038833980820191505090505b50935083925060009150600094505b87518510156106fd57878580600101965081518110151561066157fe5b9060200101517f010000000000000000000000000000000000000000000000000000000000000090047f01000000000000000000000000000000000000000000000000000000000000000283838060010194508151811015156106c057fe5b9060200101907effffffffffffffffffffffffffffffffffffffffffffffffffffffffffffff1916908160001a9053508480600101955050610644565b600094505b86518510156107bb57868580600101965081518110151561071f57fe5b9060200101517f010000000000000000000000000000000000000000000000000000000000000090047f010000000000000000000000000000000000000000000000000000000000000002838380600101945081518110151561077e57fe5b9060200101907effffffffffffffffffffffffffffffffffffffffffffffffffffffffffffff1916908160001a9053508480600101955050610702565b826040518082805190602001908083835b6020831015156107f157805182526020820191506020810190506020830392506107cc565b6001836020036101000a038019825116818451168082178552505050505050905001915050604051809103902090508060001916600160003373ffffffffffffffffffffffffffffffffffffffff1673ffffffffffffffffffffffffffffffffffffffff168152602001908152602001600020546000191614151561087257fe5b6001600360003373ffffffffffffffffffffffffffffffffffffffff1673ffffffffffffffffffffffffffffffffffffffff16815260200190815260200160002060006101000a81548160ff021916908315150217905550505050505050505050565b6000803373ffffffffffffffffffffffffffffffffffffffff1673ffffffffffffffffffffffffffffffffffffffff16815260200190815260200160002060009054906101000a900460ff1615151561092a57fe5b60408051908101604052808381526020013373ffffffffffffffffffffffffffffffffffffffff16815250600260003373ffffffffffffffffffffffffffffffffffffffff1673ffffffffffffffffffffffffffffffffffffffff16815260200190815260200160002060008201518160000190805190602001906109b092919061147d565b5060208201518160010160006101000a81548173ffffffffffffffffffffffffffffffffffffffff021916908373ffffffffffffffffffffffffffffffffffffffff160217905550905050610a0481610f5d565b60016000803373ffffffffffffffffffffffffffffffffffffffff1673ffffffffffffffffffffffffffffffffffffffff16815260200190815260200160002060006101000a81548160ff0219169083151502179055505050565b6000806000806000806000803373ffffffffffffffffffffffffffffffffffffffff1673ffffffffffffffffffffffffffffffffffffffff16815260200190815260200160002060009054906101000a900460ff168015610b095750600360003373ffffffffffffffffffffffffffffffffffffffff1673ffffffffffffffffffffffffffffffffffffffff16815260200190815260200160002060009054906101000a900460ff165b1515610b1157fe5b610b1a42611316565b809650819750829850839950849a50859b50505050505050610140604051908101604052803373ffffffffffffffffffffffffffffffffffffffff1681526020016004548152602001888152602001878152602001868152602001858152602001848152602001838152602001828152602001600260003373ffffffffffffffffffffffffffffffffffffffff1673ffffffffffffffffffffffffffffffffffffffff1681526020019081526020016000206000018054600181600116156101000203166002900480601f016020809104026020016040519081016040528092919081815260200182805460018160011615610100020316600290048015610c635780601f10610c3857610100808354040283529160200191610c63565b820191906000526020600020905b815481529060010190602001808311610c4657829003601f168201915b505050505081525060056000600454815260200190815260200160002060008201518160000160006101000a81548173ffffffffffffffffffffffffffffffffffffffff021916908373ffffffffffffffffffffffffffffffffffffffff160217905550602082015181600101556040820151816002019080519060200190610ced92919061147d565b50606082015181600301556080820151816004015560a0820151816005015560c0820151816006015560e082015181600701556101008201518160080155610120820151816009019080519060200190610d4892919061147d565b509050506004600081548092919060010191905055507f2fd62d00186ef15df84fb6fd7cecdbb4bcfd6c0aed7264f1361db1716db84b7f60405160405180910390a150505050505050565b60006020528060005260406000206000915054906101000a900460ff1681565b60056020528060005260406000206000915090508060000160009054906101000a900473ffffffffffffffffffffffffffffffffffffffff1690806001015490806002018054600181600116156101000203166002900480601f016020809104026020016040519081016040528092919081815260200182805460018160011615610100020316600290048015610e8b5780601f10610e6057610100808354040283529160200191610e8b565b820191906000526020600020905b815481529060010190602001808311610e6e57829003601f168201915b505050505090806003015490806004015490806005015490806006015490806007015490806008015490806009018054600181600116156101000203166002900480601f016020809104026020016040519081016040528092919081815260200182805460018160011615610100020316600290048015610f4d5780601f10610f2257610100808354040283529160200191610f4d565b820191906000526020600020905b815481529060010190602001808311610f3057829003601f168201915b505050505090508a565b60045481565b6060806000806060806000806000803373ffffffffffffffffffffffffffffffffffffffff1673ffffffffffffffffffffffffffffffffffffffff16815260200190815260200160002060009054906101000a900460ff16151515610fbe57fe5b88975060146040519080825280601f01601f191660200182016040528015610ff55781602001602082028038833980820191505090505b509650339550600094505b60148510156110a1578460130360080260020a8673ffffffffffffffffffffffffffffffffffffffff1681151561103357fe5b047f010000000000000000000000000000000000000000000000000000000000000002878681518110151561106457fe5b9060200101907effffffffffffffffffffffffffffffffffffffffffffffffffffffffffffff1916908160001a9053508480600101955050611000565b86518851016040519080825280601f01601f1916602001820160405280156110d85781602001602082028038833980820191505090505b50935083925060009150600094505b87518510156111a057878580600101965081518110151561110457fe5b9060200101517f010000000000000000000000000000000000000000000000000000000000000090047f010000000000000000000000000000000000000000000000000000000000000002838380600101945081518110151561116357fe5b9060200101907effffffffffffffffffffffffffffffffffffffffffffffffffffffffffffff1916908160001a90535084806001019550506110e7565b600094505b865185101561125e5786858060010196508151811015156111c257fe5b9060200101517f010000000000000000000000000000000000000000000000000000000000000090047f010000000000000000000000000000000000000000000000000000000000000002838380600101945081518110151561122157fe5b9060200101907effffffffffffffffffffffffffffffffffffffffffffffffffffffffffffff1916908160001a90535084806001019550506111a5565b826040518082805190602001908083835b602083101515611294578051825260208201915060208101905060208303925061126f565b6001836020036101000a0380198251168184511680821785525050505050509050019150506040518091039020905080600160003373ffffffffffffffffffffffffffffffffffffffff1673ffffffffffffffffffffffffffffffffffffffff1681526020019081526020016000208160001916905550505050505050505050565b6000806000806000806000611338620151808981151561133257fe5b0461139d565b809750819850829950505050620151808881151561135257fe5b069050610e108181151561136257fe5b049350610e108181151561137257fe5b069050603c8181151561138157fe5b049250603c8181151561139057fe5b0691505091939550919395565b600080600080600080600080600089955062253d8c62010bd9870101945062023ab1856004028115156113cc57fe5b059350600460038562023ab102018115156113e357fe5b058503945062164b0960018601610fa0028115156113fd57fe5b059250601f6004846105b50281151561141257fe5b05860301945061098f8560500281151561142857fe5b05915060508261098f0281151561143b57fe5b0585039050600b8281151561144c57fe5b05945084600c0260028301039150848360318603606402010192508298508197508096505050505050509193909250565b828054600181600116156101000203166002900490600052602060002090601f016020900481019282601f106114be57805160ff19168380011785556114ec565b828001600101855582156114ec579182015b828111156114eb5782518255916020019190600101906114d0565b5b5090506114f991906114fd565b5090565b61151f91905b8082111561151b576000816000905550600101611503565b5090565b905600a165627a7a7230582054139a4e766f09662c1fd29dc3ebbd742750d4c38ffc1da4f8a09c7dfe76d8060029",
  "source": "pragma solidity ^0.4.17;\n\ncontract timehelper\n{\n    uint constant SECONDS_PER_DAY = 24 * 60 * 60;\n    uint constant SECONDS_PER_HOUR = 60 * 60;\n    uint constant SECONDS_PER_MINUTE = 60;\n    int constant OFFSET19700101 = 2440588;\n\n    uint constant DOW_MON = 1;\n    uint constant DOW_TUE = 2;\n    uint constant DOW_WED = 3;\n    uint constant DOW_THU = 4;\n    uint constant DOW_FRI = 5;\n    uint constant DOW_SAT = 6;\n    uint constant DOW_SUN = 7;\n\n    function _daysToDate(uint _days) internal pure returns (uint year, uint month, uint day)\n    {\n        int __days = int(_days);\n\n        int L = __days + 68569 + OFFSET19700101;\n        int N = 4 * L / 146097;\n        L = L - (146097 * N + 3) / 4;\n        int _year = 4000 * (L + 1) / 1461001;\n        L = L - 1461 * _year / 4 + 31;\n        int _month = 80 * L / 2447;\n        int _day = L - 2447 * _month / 80;\n        L = _month / 11;\n        _month = _month + 2 - 12 * L;\n        _year = 100 * (N - 49) + _year + L;\n\n        year = uint(_year);\n        month = uint(_month);\n        day = uint(_day);\n    }\n\n    function timestampToDateTime(uint timestamp) internal pure returns (uint year, uint month, uint day, uint hour, uint minute, uint second) {\n        (year, month, day) = _daysToDate(timestamp / SECONDS_PER_DAY);\n        uint secs = timestamp % SECONDS_PER_DAY;\n        hour = secs / SECONDS_PER_HOUR;\n        secs = secs % SECONDS_PER_HOUR;\n        minute = secs / SECONDS_PER_MINUTE;\n        second = secs % SECONDS_PER_MINUTE;\n    }\n\n\n\n}\ncontract Microblogger is timehelper\n{\n\n\n    function Microblogger() public\n    {\n            msgCount=0;\n\n    }\n\n    /*\n    # ------------------------------------------------------------------------------\n    # | Memeber Registration and Logging                                           |\n    # ------------------------------------------------------------------------------\n    */\n\n\n\n\n    struct member\n    {\n        string  name;\n        address  addr;\n\n    }\n\n    mapping (address => bool) public OldMember;\n    mapping (address => bytes32) private _key_value;\n    mapping (address => member) private _memberDetails;\n    mapping (address => bool) private _logged;\n\n    modifier notRegistered()\n    {\n        assert(!OldMember[msg.sender]);\n        _;\n\n    }\n\n\n    function make_secure(string _pass) internal notRegistered\n    {\n        bytes memory _arg1 =  bytes(_pass);\n        bytes memory _arg2 =  new bytes(20);\n        address x=msg.sender;\n        for (uint i = 0; i < 20; i++)\n            _arg2[i] = byte(uint8(uint(x) / (2**(8*(19 - i)))));\n        string memory _temps = new string( _arg1.length + _arg2.length );\n        bytes memory _target_s = bytes(_temps);\n        uint k=0;\n        for(i=0;i<_arg1.length;i++) _target_s[k++]=_arg1[i++];\n        for(i=0;i<_arg2.length;i++) _target_s[k++]=_arg2[i++];\n        bytes32 _sha256;\n        _sha256=keccak256(_target_s);\n\n        _key_value[msg.sender]=_sha256;\n    }\n\n    function register(string _name,string keyphrase) public notRegistered\n    {\n        _memberDetails[msg.sender] = member(_name,msg.sender);\n        make_secure(keyphrase);\n        OldMember[msg.sender]=true;\n    }\n\n    function login(string keyphrase) public\n    {\n        assert(msg.sender== _memberDetails[msg.sender].addr);\n\n        bytes memory _arg1 =  bytes(keyphrase);\n        bytes memory _arg2 =  new bytes(20);\n        address x=msg.sender;\n        for (uint i = 0; i < 20; i++)\n            _arg2[i] = byte(uint8(uint(x) / (2**(8*(19 - i)))));\n        string memory _temps = new string( _arg1.length + _arg2.length );\n        bytes memory _target_s = bytes(_temps);\n        uint k=0;\n        for(i=0;i<_arg1.length;i++) _target_s[k++]=_arg1[i++];\n        for(i=0;i<_arg2.length;i++) _target_s[k++]=_arg2[i++];\n        bytes32 _sha256;\n        _sha256=keccak256(_target_s);\n\n        assert(_key_value[msg.sender] == _sha256);\n\n        _logged[msg.sender] = true;\n\n    }\n\n\n\n    /*\n    # ------------------------------------------------------------------------------\n    # | Making Posts                                                                |\n    # ------------------------------------------------------------------------------\n    */\n\n\n\n    //track of counter for posts\n    uint public msgCount;\n\n    //Model of a Post\n    struct Post\n    {\n        address owner;\n        uint id;\n        string data;\n        uint year; uint month; uint day; uint hour; uint minute; uint second;\n        string username;\n    }\n\n    //Holds the post as a map to the counter.\n    mapping (uint => Post ) public Messages;\n\n    event NewPost();\n\n    modifier loggedMember()\n    {\n        assert(OldMember[msg.sender] && _logged[msg.sender]);\n        _;\n    }\n\n    //Message creation\n    function PostMessage(string msgs) public loggedMember\n    {   uint year; uint month; uint day; uint hour; uint minute; uint second;\n        (year, month, day, hour, minute , second) = timestampToDateTime(now);\n        Messages[msgCount] = Post(msg.sender,msgCount, msgs , year, month, day,hour,minute,second,_memberDetails[msg.sender].name );\n        //Increment the msg counter\n        msgCount++;\n        NewPost();\n    }\n    function logout() public\n    {\n        _logged[msg.sender] = false;\n\n    }\n\n\n}\n",
  "sourcePath": "/home/neosp/Test/git_experiments/Decentralized_twitter/contracts/Microblogger.sol",
  "compiler": {
    "name": "solc",
    "version": "0.4.24+commit.e67f0147.Emscripten.clang"
  },
  "schemaVersion": "2.0.0",
  "updatedAt": "2018-06-05T15:50:41.051Z"
}