{
  "contractName": "Microblogger",
  "abi": [
    {
      "constant": true,
      "inputs": [
        {
          "name": "",
          "type": "address"
        }
      ],
      "name": "OldMember",
      "outputs": [
        {
          "name": "",
          "type": "bool"
        }
      ],
      "payable": false,
      "stateMutability": "view",
      "type": "function"
    },
    {
      "constant": true,
      "inputs": [
        {
          "name": "",
          "type": "uint256"
        }
      ],
      "name": "Messages",
      "outputs": [
        {
          "name": "owner",
          "type": "address"
        },
        {
          "name": "id",
          "type": "uint256"
        },
        {
          "name": "data",
          "type": "string"
        },
        {
          "name": "created",
          "type": "uint256"
        }
      ],
      "payable": false,
      "stateMutability": "view",
      "type": "function"
    },
    {
      "constant": true,
      "inputs": [],
      "name": "msgCount",
      "outputs": [
        {
          "name": "",
          "type": "uint256"
        }
      ],
      "payable": false,
      "stateMutability": "view",
      "type": "function"
    },
    {
      "inputs": [],
      "payable": false,
      "stateMutability": "nonpayable",
      "type": "constructor"
    },
    {
      "constant": false,
      "inputs": [
        {
          "name": "_name",
          "type": "string"
        },
        {
          "name": "keyphrase",
          "type": "string"
        }
      ],
      "name": "register",
      "outputs": [],
      "payable": false,
      "stateMutability": "nonpayable",
      "type": "function"
    },
    {
      "constant": false,
      "inputs": [
        {
          "name": "keyphrase",
          "type": "string"
        }
      ],
      "name": "login",
      "outputs": [],
      "payable": false,
      "stateMutability": "nonpayable",
      "type": "function"
    },
    {
      "constant": false,
      "inputs": [
        {
          "name": "msgs",
          "type": "string"
        }
      ],
      "name": "PostMessage",
      "outputs": [],
      "payable": false,
      "stateMutability": "nonpayable",
      "type": "function"
    }
  ],
  "bytecode": "0x608060405234801561001057600080fd5b506000600481905550611074806100286000396000f300608060405260043610610078576000357c0100000000000000000000000000000000000000000000000000000000900463ffffffff1680633a7d280c1461007d5780633ffbd47f146100e6578063457f21b91461019557806384d4a3bf146101fe57806385a4d02e146102595780638f1a281014610340575b600080fd5b34801561008957600080fd5b506100e4600480360381019080803590602001908201803590602001908080601f016020809104026020016040519081016040528093929190818152602001838380828437820191505050505050919291929050505061036b565b005b3480156100f257600080fd5b50610193600480360381019080803590602001908201803590602001908080601f0160208091040260200160405190810160405280939291908181526020018383808284378201915050505050509192919290803590602001908201803590602001908080601f01602080910402602001604051908101604052809392919081815260200183838082843782019150505050505091929192905050506107ca565b005b3480156101a157600080fd5b506101fc600480360381019080803590602001908201803590602001908080601f0160208091040260200160405190810160405280939291908181526020018383808284378201915050505050509192919290505050610954565b005b34801561020a57600080fd5b5061023f600480360381019080803573ffffffffffffffffffffffffffffffffffffffff169060200190929190505050610adc565b604051808215151515815260200191505060405180910390f35b34801561026557600080fd5b5061028460048036038101908080359060200190929190505050610afc565b604051808573ffffffffffffffffffffffffffffffffffffffff1673ffffffffffffffffffffffffffffffffffffffff16815260200184815260200180602001838152602001828103825284818151815260200191508051906020019080838360005b838110156103025780820151818401526020810190506102e7565b50505050905090810190601f16801561032f5780820380516001836020036101000a031916815260200191505b509550505050505060405180910390f35b34801561034c57600080fd5b50610355610be4565b6040518082815260200191505060405180910390f35b606080600080606080600080600260003373ffffffffffffffffffffffffffffffffffffffff1673ffffffffffffffffffffffffffffffffffffffff16815260200190815260200160002060010160009054906101000a900473ffffffffffffffffffffffffffffffffffffffff1673ffffffffffffffffffffffffffffffffffffffff163373ffffffffffffffffffffffffffffffffffffffff1614151561041057fe5b88975060146040519080825280601f01601f1916602001820160405280156104475781602001602082028038833980820191505090505b509650339550600094505b60148510156104f3578460130360080260020a8673ffffffffffffffffffffffffffffffffffffffff1681151561048557fe5b047f01000000000000000000000000000000000000000000000000000000000000000287868151811015156104b657fe5b9060200101907effffffffffffffffffffffffffffffffffffffffffffffffffffffffffffff1916908160001a9053508480600101955050610452565b86518851016040519080825280601f01601f19166020018201604052801561052a5781602001602082028038833980820191505090505b50935083925060009150600094505b87518510156105f257878580600101965081518110151561055657fe5b9060200101517f010000000000000000000000000000000000000000000000000000000000000090047f01000000000000000000000000000000000000000000000000000000000000000283838060010194508151811015156105b557fe5b9060200101907effffffffffffffffffffffffffffffffffffffffffffffffffffffffffffff1916908160001a9053508480600101955050610539565b600094505b86518510156106b057868580600101965081518110151561061457fe5b9060200101517f010000000000000000000000000000000000000000000000000000000000000090047f010000000000000000000000000000000000000000000000000000000000000002838380600101945081518110151561067357fe5b9060200101907effffffffffffffffffffffffffffffffffffffffffffffffffffffffffffff1916908160001a90535084806001019550506105f7565b826040518082805190602001908083835b6020831015156106e657805182526020820191506020810190506020830392506106c1565b6001836020036101000a038019825116818451168082178552505050505050905001915050604051809103902090508060001916600160003373ffffffffffffffffffffffffffffffffffffffff1673ffffffffffffffffffffffffffffffffffffffff168152602001908152602001600020546000191614151561076757fe5b6001600360003373ffffffffffffffffffffffffffffffffffffffff1673ffffffffffffffffffffffffffffffffffffffff16815260200190815260200160002060006101000a81548160ff021916908315150217905550505050505050505050565b6000803373ffffffffffffffffffffffffffffffffffffffff1673ffffffffffffffffffffffffffffffffffffffff16815260200190815260200160002060009054906101000a900460ff1615151561081f57fe5b60408051908101604052808381526020013373ffffffffffffffffffffffffffffffffffffffff16815250600260003373ffffffffffffffffffffffffffffffffffffffff1673ffffffffffffffffffffffffffffffffffffffff16815260200190815260200160002060008201518160000190805190602001906108a5929190610fa3565b5060208201518160010160006101000a81548173ffffffffffffffffffffffffffffffffffffffff021916908373ffffffffffffffffffffffffffffffffffffffff1602179055509050506108f981610bea565b60016000803373ffffffffffffffffffffffffffffffffffffffff1673ffffffffffffffffffffffffffffffffffffffff16815260200190815260200160002060006101000a81548160ff0219169083151502179055505050565b6000803373ffffffffffffffffffffffffffffffffffffffff1673ffffffffffffffffffffffffffffffffffffffff16815260200190815260200160002060009054906101000a900460ff1680156109f55750600360003373ffffffffffffffffffffffffffffffffffffffff1673ffffffffffffffffffffffffffffffffffffffff16815260200190815260200160002060009054906101000a900460ff165b15156109fd57fe5b6080604051908101604052803373ffffffffffffffffffffffffffffffffffffffff16815260200160045481526020018281526020014281525060056000600454815260200190815260200160002060008201518160000160006101000a81548173ffffffffffffffffffffffffffffffffffffffff021916908373ffffffffffffffffffffffffffffffffffffffff160217905550602082015181600101556040820151816002019080519060200190610ab9929190610fa3565b506060820151816003015590505060046000815480929190600101919050555050565b60006020528060005260406000206000915054906101000a900460ff1681565b60056020528060005260406000206000915090508060000160009054906101000a900473ffffffffffffffffffffffffffffffffffffffff1690806001015490806002018054600181600116156101000203166002900480601f016020809104026020016040519081016040528092919081815260200182805460018160011615610100020316600290048015610bd45780601f10610ba957610100808354040283529160200191610bd4565b820191906000526020600020905b815481529060010190602001808311610bb757829003601f168201915b5050505050908060030154905084565b60045481565b6060806000806060806000806000803373ffffffffffffffffffffffffffffffffffffffff1673ffffffffffffffffffffffffffffffffffffffff16815260200190815260200160002060009054906101000a900460ff16151515610c4b57fe5b88975060146040519080825280601f01601f191660200182016040528015610c825781602001602082028038833980820191505090505b509650339550600094505b6014851015610d2e578460130360080260020a8673ffffffffffffffffffffffffffffffffffffffff16811515610cc057fe5b047f0100000000000000000000000000000000000000000000000000000000000000028786815181101515610cf157fe5b9060200101907effffffffffffffffffffffffffffffffffffffffffffffffffffffffffffff1916908160001a9053508480600101955050610c8d565b86518851016040519080825280601f01601f191660200182016040528015610d655781602001602082028038833980820191505090505b50935083925060009150600094505b8751851015610e2d578785806001019650815181101515610d9157fe5b9060200101517f010000000000000000000000000000000000000000000000000000000000000090047f0100000000000000000000000000000000000000000000000000000000000000028383806001019450815181101515610df057fe5b9060200101907effffffffffffffffffffffffffffffffffffffffffffffffffffffffffffff1916908160001a9053508480600101955050610d74565b600094505b8651851015610eeb578685806001019650815181101515610e4f57fe5b9060200101517f010000000000000000000000000000000000000000000000000000000000000090047f0100000000000000000000000000000000000000000000000000000000000000028383806001019450815181101515610eae57fe5b9060200101907effffffffffffffffffffffffffffffffffffffffffffffffffffffffffffff1916908160001a9053508480600101955050610e32565b826040518082805190602001908083835b602083101515610f215780518252602082019150602081019050602083039250610efc565b6001836020036101000a0380198251168184511680821785525050505050509050019150506040518091039020905080600160003373ffffffffffffffffffffffffffffffffffffffff1673ffffffffffffffffffffffffffffffffffffffff1681526020019081526020016000208160001916905550505050505050505050565b828054600181600116156101000203166002900490600052602060002090601f016020900481019282601f10610fe457805160ff1916838001178555611012565b82800160010185558215611012579182015b82811115611011578251825591602001919060010190610ff6565b5b50905061101f9190611023565b5090565b61104591905b80821115611041576000816000905550600101611029565b5090565b905600a165627a7a72305820bc7828aea5fb6c93bd770d2b2336c49614ba93d697c630807617cce99eaed0ef0029",
  "source": "pragma solidity ^0.4.17;\n\ncontract Microblogger\n{\n\n\n    function Microblogger() public\n    {\n            msgCount=0;\n\n    }\n\n    /*\n    # ------------------------------------------------------------------------------\n    # | Memeber Registration and Logging                                           |\n    # ------------------------------------------------------------------------------\n    */\n\n\n\n\n    struct member\n    {\n        string  name;\n        address  addr;\n\n    }\n\n    mapping (address => bool) public OldMember;\n    mapping (address => bytes32) private _key_value;\n    mapping (address => member) private _memberDetails;\n    mapping (address => bool) private _logged;\n\n    modifier notRegistered()\n    {\n        assert(!OldMember[msg.sender]);\n        _;\n\n    }\n\n    function make_secure(string _pass) internal notRegistered\n    {\n        bytes memory _arg1 =  bytes(_pass);\n        bytes memory _arg2 =  new bytes(20);\n        address x=msg.sender;\n        for (uint i = 0; i < 20; i++)\n            _arg2[i] = byte(uint8(uint(x) / (2**(8*(19 - i)))));\n        string memory _temps = new string( _arg1.length + _arg2.length );\n        bytes memory _target_s = bytes(_temps);\n        uint k=0;\n        for(i=0;i<_arg1.length;i++) _target_s[k++]=_arg1[i++];\n        for(i=0;i<_arg2.length;i++) _target_s[k++]=_arg2[i++];\n        bytes32 _sha256;\n        _sha256=keccak256(_target_s);\n\n        _key_value[msg.sender]=_sha256;\n    }\n\n    function register(string _name,string keyphrase) public notRegistered\n    {\n        _memberDetails[msg.sender] = member(_name,msg.sender);\n        make_secure(keyphrase);\n        OldMember[msg.sender]=true;\n    }\n\n    function login(string keyphrase) public\n    {\n        assert(msg.sender== _memberDetails[msg.sender].addr);\n\n        bytes memory _arg1 =  bytes(keyphrase);\n        bytes memory _arg2 =  new bytes(20);\n        address x=msg.sender;\n        for (uint i = 0; i < 20; i++)\n            _arg2[i] = byte(uint8(uint(x) / (2**(8*(19 - i)))));\n        string memory _temps = new string( _arg1.length + _arg2.length );\n        bytes memory _target_s = bytes(_temps);\n        uint k=0;\n        for(i=0;i<_arg1.length;i++) _target_s[k++]=_arg1[i++];\n        for(i=0;i<_arg2.length;i++) _target_s[k++]=_arg2[i++];\n        bytes32 _sha256;\n        _sha256=keccak256(_target_s);\n\n        assert(_key_value[msg.sender] == _sha256);\n\n        _logged[msg.sender] = true;\n\n    }\n\n\n\n    /*\n    # ------------------------------------------------------------------------------\n    # | Making Posts                                                                |\n    # ------------------------------------------------------------------------------\n    */\n\n\n\n    //track of counter for posts\n    uint public msgCount;\n\n    //Model of a Post\n    struct Post\n    {\n        address owner;\n        uint id;\n        string data;\n        uint created;\n    }\n\n    //Holds the post as a map to the counter.\n    mapping (uint => Post ) public Messages;\n\n    modifier loggedMember()\n    {\n        assert(OldMember[msg.sender] && _logged[msg.sender]);\n        _;\n    }\n\n    //Message creation\n    function PostMessage(string msgs) public loggedMember\n    {\n        Messages[msgCount] = Post( msg.sender, msgCount, msgs , now );\n        //Increment the msg counter\n        msgCount++;\n    }\n\n\n}\n",
  "sourcePath": "/home/neosp/Test/git_experiments/Decentralized_twitter/contracts/Microblogger.sol",
  "compiler": {
    "name": "solc",
    "version": "0.4.24+commit.e67f0147.Emscripten.clang"
  },
  "schemaVersion": "2.0.0",
  "updatedAt": "2018-06-04T08:33:14.340Z"
}