{
  "contractName": "Microblogger",
  "abi": [
    {
      "constant": true,
      "inputs": [
        {
          "name": "",
          "type": "uint256"
        }
      ],
      "name": "Messages",
      "outputs": [
        {
          "name": "owner",
          "type": "address"
        },
        {
          "name": "id",
          "type": "uint256"
        },
        {
          "name": "data",
          "type": "string"
        },
        {
          "name": "created",
          "type": "uint256"
        }
      ],
      "payable": false,
      "stateMutability": "view",
      "type": "function"
    },
    {
      "constant": true,
      "inputs": [],
      "name": "msgCount",
      "outputs": [
        {
          "name": "",
          "type": "uint256"
        }
      ],
      "payable": false,
      "stateMutability": "view",
      "type": "function"
    },
    {
      "inputs": [],
      "payable": false,
      "stateMutability": "nonpayable",
      "type": "constructor"
    },
    {
      "constant": false,
      "inputs": [
        {
          "name": "msgs",
          "type": "string"
        }
      ],
      "name": "PostMessage",
      "outputs": [],
      "payable": false,
      "stateMutability": "nonpayable",
      "type": "function"
    }
  ],
  "bytecode": "0x608060405234801561001057600080fd5b5060008081905550610473806100276000396000f300608060405260043610610057576000357c0100000000000000000000000000000000000000000000000000000000900463ffffffff168063457f21b91461005c57806385a4d02e146100c55780638f1a2810146101ac575b600080fd5b34801561006857600080fd5b506100c3600480360381019080803590602001908201803590602001908080601f01602080910402602001604051908101604052809392919081815260200183838082843782019150505050505091929192905050506101d7565b005b3480156100d157600080fd5b506100f0600480360381019080803590602001909291905050506102b4565b604051808573ffffffffffffffffffffffffffffffffffffffff1673ffffffffffffffffffffffffffffffffffffffff16815260200184815260200180602001838152602001828103825284818151815260200191508051906020019080838360005b8381101561016e578082015181840152602081019050610153565b50505050905090810190601f16801561019b5780820380516001836020036101000a031916815260200191505b509550505050505060405180910390f35b3480156101b857600080fd5b506101c161039c565b6040518082815260200191505060405180910390f35b6080604051908101604052803373ffffffffffffffffffffffffffffffffffffffff168152602001600054815260200182815260200142815250600160008054815260200190815260200160002060008201518160000160006101000a81548173ffffffffffffffffffffffffffffffffffffffff021916908373ffffffffffffffffffffffffffffffffffffffff1602179055506020820151816001015560408201518160020190805190602001906102929291906103a2565b5060608201518160030155905050600080815480929190600101919050555050565b60016020528060005260406000206000915090508060000160009054906101000a900473ffffffffffffffffffffffffffffffffffffffff1690806001015490806002018054600181600116156101000203166002900480601f01602080910402602001604051908101604052809291908181526020018280546001816001161561010002031660029004801561038c5780601f106103615761010080835404028352916020019161038c565b820191906000526020600020905b81548152906001019060200180831161036f57829003601f168201915b5050505050908060030154905084565b60005481565b828054600181600116156101000203166002900490600052602060002090601f016020900481019282601f106103e357805160ff1916838001178555610411565b82800160010185558215610411579182015b828111156104105782518255916020019190600101906103f5565b5b50905061041e9190610422565b5090565b61044491905b80821115610440576000816000905550600101610428565b5090565b905600a165627a7a72305820ea770895a7afd072d6e898555f12f4c053d02dc304299418717a532c07df36650029",
  "source": "pragma solidity ^0.4.17;\n\ncontract Microblogger\n{\n    //track of counter for posts\n    uint public msgCount;\n\n    function Microblogger() public\n    {\n            msgCount=0;\n    }\n\n    //Model of a Post\n    struct Post\n    {\n        address owner;\n        uint id;\n        string data;\n        uint created;\n    }\n\n    //Holds the post as a map to the counter.\n    mapping (uint => Post ) public Messages;\n\n    //Message creation\n    function PostMessage(string msgs) public\n    {\n        Messages[msgCount] = Post( msg.sender, msgCount, msgs , now );\n        //Increment the msg counter\n        msgCount++;\n    }\n\n    \n}\n",
  "sourcePath": "/home/neosp/Test/git_experiments/Decentralized_twitter/contracts/Microblogger.sol",
  "compiler": {
    "name": "solc",
    "version": "0.4.24+commit.e67f0147.Emscripten.clang"
  },
  "schemaVersion": "2.0.0",
  "updatedAt": "2018-06-03T05:07:03.395Z"
}